:020000040800F2
:10000000604A0024F9030008DB400008873C000830
:10001000D940000853060008914C00080000000079
:10002000000000000000000000000000390300088C
:1000300085080008000000009503000889430008B7
:100040001304000813040008130400081304000834
:100050001304000813040008130400081304000824
:1000600013040008130400081304000855060008D0
:1000700061060008130400081304000813040008B4
:1000800013040008130400081304000813040008F4
:1000900013040008130400081304000813040008E4
:1000A00013040008130400081304000813040008D4
:1000B00013040008130400081304000813040008C4
:1000C00013040008130400081304000813040008B4
:1000D00013040008614C00086D4C0008794C0008BE
:1000E00013040008130400080000000013040008B3
:1000F0001304000813040008130400081304000884
:100100001304000813040008130400081304000873
:1001100013040008094600081304000839450008C4
:100120001304000813040008130400081304000853
:100130001304000813040008130400081304000843
:1001400000000000000000000000000000000000AF
:10015000130400081304000813040008854C000869
:100160001304000813040008130400081304000813
:100170001304000813040008130400080000000022
:1001800013040008130400081304000813040008F3
:1001900013040008130400081304000813040008E3
:1001A00013040008130400081304000813040008D3
:1001B00013040008130400081304000813040008C3
:1001C00013040008130400081304000813040008B3
:1001D00013040008130400081304000813040008A3
:1001E0001304000813040008130400081304000893
:1001F0001304000813040008130400081304000883
:100200001304000813040008130400081304000872
:100210001304000813040008130400081304000862
:100220001304000813040008130400080000000071
:100230001304000813040008000000001304000861
:100240001304000813040008130400081304000832
:100250001304000813040008130400081304000822
:100260001304000813040008130400081304000812
:100270001304000813040008130400080000000021
:100280001304000813040008130400080000000011
:10029000000000001304000800F002F800F03CF831
:1002A0000AA090E8000C82448344AAF10107DA45D1
:1002B00001D100F031F8AFF2090EBAE80F0013F0E7
:1002C000010F18BFFB1A43F0010318478C570000B9
:1002D000AC570000103A24BF78C878C1FAD852074A
:1002E00024BF30C830C144BF04680C6070470000B0
:1002F0000023002400250026103A28BF78C1FBD82F
:10030000520728BF30C148BF0B6070471FB505F0CA
:100310008DFA1FBD10B510BD00F061F91146FFF751
:10032000F5FF04F0C7FC00F07FF903B4FFF7F2FF1C
:1003300003BC00F087F900002C4B19680868B0E88E
:10034000F04F80F30988BFF36F8F4FF0000080F308
:10035000118870470000000008480068006880F3BA
:1003600008884FF0000080F3148862B661B6BFF3CE
:100370004F8FBFF36F8F00DF00BF00BF08ED00E0BD
:10038000DFF80C00016841F470010160704700BFA4
:1003900088ED00E0EFF30980BFF36F8F134B1A680D
:1003A0001EF0100F08BF20ED108A20E9F04F1060FA
:1003B00009B44FF0500080F31188BFF34F8FBFF3A3
:1003C0006F8F05F06BF84FF0000080F3118809BCC7
:1003D00019680868B0E8F04F1EF0100F08BFB0ECC5
:1003E000108A80F30988BFF36F8F704744000024A0
:1003F000EFF305807047000009488047094800472F
:10040000FEE7FEE7FEE7FEE7FEE7FEE7FEE7FEE7C4
:10041000FEE7FEE704480549054A064B7047000021
:100420005D4400089902000860440024604A0024EA
:10043000604600246046002453EA020C00F0698004
:100440002DE9F04B4FF00006002B1FBFB3FA83F5E8
:1004500003FA05F424FA05F65E4012BF1643B2FA19
:1004600082F502FA05F4C5F120051EBF22FA05FC4B
:1004700044EA0C04203556EA044C4FEA144418BFF1
:10048000641C4FF000084FF00009904271EB030C20
:1004900039D3002919BFB1FA81F701FA07F6B0FA8A
:1004A00080F700FA07F6C7F120071EBF20FA07FC05
:1004B00046EA0C062037B6FBF4FCA7EB0507103F15
:1004C00007F01F0BCBF120060CFA0BFB2CFA06F6FB
:1004D00044BFB3460026202FA4BF5E464FF0000B5A
:1004E0005BEA060C08BF4FF0010B19EB0B09ABFBE5
:1004F000027C48EB0608C01B06FB02CC0BFB03CCBE
:1005000071EB0C01C1E70B46024641464846BDE887
:10051000F08B13B54FF000004FF00001AFF30080F7
:10052000BDE81C40704710B5203AC0F00B80B1E820
:100530001850203AA0E81850B1E81850A0E8185018
:10054000BFF4F5AF5FEA027C24BFB1E81850A0E821
:10055000185044BF18C918C0BDE810405FEA827C3B
:1005600024BF51F8043B40F8043B08BF7047D20752
:1005700028BF31F8023B48BF11F8012B28BF20F8F3
:10058000023B48BF00F8012B70474FF0000200B556
:10059000134694469646203922BFA0E80C50A0E8A6
:1005A0000C50B1F12001BFF4F7AF090728BFA0E854
:1005B0000C5048BF0CC05DF804EB890028BF40F820
:1005C000042B08BF704748BF20F8022B11F0804F62
:1005D00018BF00F8012B7047704770477047754689
:1005E00000F02CF8AE4605006946534620F007009F
:1005F000854618B020B5FFF70DFFBDE820404FF04D
:1006000000064FF000074FF000084FF0000B21F0FC
:100610000701AC46ACE8C009ACE8C009ACE8C009C9
:10062000ACE8C0098D46704710B50446AFF30080B2
:100630002046BDE81040FFF778BE00000048704734
:10064000FC43002401491820ABBEFEE7260002004F
:100650007047FEE7014800F00BBC0000D005002405
:10066000014800F005BC000048060024294A016842
:1006700091423AD0274A1832914236D0254A303238
:10068000914232D0234A483291422ED0214A6032E0
:1006900091422AD01F4A7832914226D01D4A903288
:1006A000914222D01B4AA83291421ED01A4A91424E
:1006B0001BD0194A1832914217D0174A3032914252
:1006C00013D0154A483291420FD0134A60329142FA
:1006D0000BD0114A7832914207D00F4A90329142A2
:1006E00003D00D4AA832914211D1CAB21823103A50
:1006F000B2FBF3F26FF30901032A02F00703074A82
:10070000D25CC26500D9091D81650846704721F099
:10071000FF01F9E710000240100402408859000868
:1007200030B5224A012301689142CAB21BD01F4C46
:100730001434A14217D01D4C2834A14213D01B4CB5
:100740003C34A1420FD0194C5034A1420BD0174C6D
:100750006434A14207D0154C7834A14203D0134C25
:100760008C34A1420CD11421114C083AB2FBF1F1A6
:100770000F4A803201F01F0504EB8101AB4010E00D
:100780000C4D1824103A0D44B2FBF4F1A82D00D8FA
:100790000831094A01F01F0402EB8101064AA34017
:1007A0008032603080E80E0030BD000008540258EE
:1007B00000580258F0FBFDBF0008024010B5027956
:1007C000531E072B2DD8174C0168A1421BD0154C86
:1007D0001434A14217D0134C2834A14213D0114C29
:1007E0003C34A1420FD00F4C5034A1420BD00D4CE1
:1007F0006434A14207D00B4C7834A14203D0094C99
:100800008C34A14203D10849074C443102E0074926
:10081000064C443104EB8202C0E91B2101219940BE
:10082000416710BD08540258FC580258FC080240A9
:1008300010B583694FF0C074826A0146002053B13D
:10084000B3F5005F15D072B1012A0CD0022A0AD08C
:10085000032A09D104E01AB1012A06D0022A03D1E1
:10086000C96AC90100D5012010BDC96AA142FAD0E8
:1008700010BD002AF7D0012AF2D0022AF3D0032AB1
:10088000F3D010BD704772B6FEE700002DE9F84FB7
:10089000044601F077F900903CB194F83500022845
:1008A00006D0802161650020E4E00120BDE8F88FDA
:1008B000C74DC74EC649183520683036DFF8148357
:1008C000DFF814938842DFF814A3DFF814B32ED0B6
:1008D000A8422CD0B0422AD0404528D0484526D046
:1008E000504524D0584522D0BD4A183290421ED0DF
:1008F000BC4A90421BD0BB4A1832904217D0B94A2A
:100900003032904213D0B74A483290420FD0B54AA5
:10091000603290420BD0B34A7832904207D0B14A4D
:100920009032904203D0AF4AA832904209D1026877
:1009300022F01E0202602068426922F080024261B9
:1009400003E0026822F00E02026027688F423846F8
:100950004DD0A8424BD0B04249D0404547D0484541
:1009600045D0504543D0584541D09D4A1832904219
:100970003DD09C4A90423AD09A4A1832904236D0A2
:10098000984A3032904232D0964A483290422ED025
:10099000944A603290422AD0924A7832904226D0CD
:1009A000904A9032904222D08E4AA83290421ED075
:1009B0008D4A90421BD08C4A1432904217D08A4AFA
:1009C0002832904213D0884A3C3290420FD0864A57
:1009D000503290420BD0844A6432904207D0824A0F
:1009E0007832904203D0804A8C32974204D1206EF4
:1009F000026822F48072026075492068884228D01B
:100A0000A84226D0B04224D0404522D0484520D02C
:100A100050451ED058451CD071491831884218D015
:100A20007049884215D06F491831884211D06D49FC
:100A3000303188420DD06B494831884209D069492C
:100A40006031884205D067497831884201D06549D4
:100A50009031016821F0010101600EE001F092F88F
:100A60000099401A052808D9202262650321002038
:100A700084F8351084F8340017E73868C007EDD1E2
:100A8000534A0121206890422ED0A8422CD0B04277
:100A90002AD0404528D0484526D0504524D0584536
:100AA00022D04F4B183398421ED04E4B98421BD049
:100AB0004C4B1833984217D04A4B3033984213D0DE
:100AC000484B483398420FD0464B603398420BD086
:100AD000444B7833984207D0424B9033984203D02E
:100AE000404BA833984208D194F85C703F23A06D26
:100AF00007F01F07BB40836007E094F85C30A06DEF
:100B000003F01F0301FA03F34360206890424DD0C5
:100B1000A8424BD0B04249D0404547D0484545D087
:100B2000504543D0584541D02D4A183290423DD0CF
:100B30002C4A90423AD02B4A1832904236D0294A59
:100B40003032904232D0274A483290422ED0254A45
:100B5000603290422AD0234A7832904226D0214AED
:100B60009032904222D01F4AA83290421ED01E4A94
:100B700090421BD01C4A1432904217D01A4A283295
:100B8000904213D0184A3C3290420FD0164A50324D
:100B900090420BD0144A6432904207D0124A783205
:100BA000904203D0104A8C3290420BD1D4E9190202
:100BB0004260E06E30B1026822F480720260D4E9D3
:100BC0001C024260002084F8351084F834006DE681
:100BD00010000240580002407000024088000240AD
:100BE000A000024010040240085402582DE9F05FB2
:100BF00028B190F83510022904D0802141650120E8
:100C0000BDE8F09F904C904B0168183C18338E4A19
:100C1000DFF83C92A1428D4CDFF838E28E4FDFF8CE
:100C20003CB2DFF83CA28F4D8F4E31D091422FD095
:100C300099422DD0A1422BD0494529D0714527D0CA
:100C4000B94225D0DFF810C20CF1180C61451FD055
:100C5000DFF808C2ACF1600C614519D0DFF8FCC1C7
:100C6000ACF1480C614513D0DFF8F0C1ACF1300CA9
:100C700061450DD0DFF8E4C1ACF1180C614507D037
:100C8000594505D0514503D0A94201D0B1422CD1DC
:100C9000DFF8B4C14FF0040880F83580ACF1180CCF
:100CA00061451DD091421BD0994219D0A14217D065
:100CB000494515D0714513D0B94211D06648183056
:100CC00081420DD065486038814209D06348483878
:100CD000814205D061483038814201D05F481838E0
:100CE000086820F001000860ABE0D1F800C02CF0EB
:100CF0000E08DFF854C1C1F80080ACF1180C01688F
:100D0000614527D0914225D0994223D0A14221D0DC
:100D100049451FD071451DD0B9421BD0DFF838C1FD
:100D20000CF1180C614515D0DFF830C1ACF1600C46
:100D300061450FD0DFF824C1ACF1480C614509D002
:100D4000DFF818C1ACF1300C614503D0DFF80CC1FD
:100D5000ACF1180CD1F800C02CF0010CC1F800C0A7
:100D6000DFF8E4804FF0010C0168A8F11808414554
:100D700046D0914244D0994242D0A14240D0494508
:100D80003ED071453CD0B9423AD0334A18329142F4
:100D900036D0324A603A914232D0304A483A914293
:100DA0002ED02E4A303A91422AD02C4A183A9142FB
:100DB00026D0594524D0514522D0A94220D0B14255
:100DC0001ED02A4A91421BD0284A1432914217D091
:100DD000264A2832914213D0244A3C3291420FD005
:100DE000224A503291420BD0204A6432914207D0BD
:100DF0001E4A7832914203D01C4A8C32914218D15B
:100E0000016E0A6822F480720A6090F85C20816D9D
:100E100002F01F020CFA02F24A60D0E919124A608D
:100E2000C16E31B10A6822F480720A60D0E91C12E6
:100E30004A600022016D80F835C080F8342001B18D
:100E400088470020DCE600002800024058000240ED
:100E50007000024088000240A0000240700402407E
:100E600088040240A0040240B8040240085402581A
:100E70002DE9FC5F0446F74E0020DFF8D883009090
:100E80004FF41652F44808F11808A56DDFF8C49322
:100E9000DFF8C0A3016809F1300920680AF1480AA7
:100EA000B1FBF2F1B04201912F68D5F800C0DFF834
:100EB000ACB335D04146884232D0484530D0504559
:100EC0002ED058452CD0E5491831884228D0E34926
:100ED0003031884224D0E1494831884220D0E0496D
:100EE00088421DD0DE491831884219D0DC493031A2
:100EF000884215D0DA494831884211D0DFF860E3E2
:100F00000EF1600E70450BD0D54A7832904207D072
:100F1000D34B9033984203D0D149A83188427DD138
:100F200094F85C20082102F01F0201FA02F23A4212
:100F30004AD0B04232D0404530D048452ED05045FE
:100F40002CD058452AD0C54A1832904226D0C34AE0
:100F50003032904222D0C14A483290421ED0C04A1C
:100F600090421BD0BE4A1832904217D0BC4A303251
:100F7000904213D0BA4A483290420FD0B84A6032F9
:100F800090420BD0B64A7832904207D0B44A9032A1
:100F9000904203D0B24AA832904203D1026802F0D4
:100FA000040202E0026802F008026AB1026822F05C
:100FB0000402026094F85C0000F01F008140A96008
:100FC000606D40F00100606594F85C00012100F064
:100FD0001F008140394240D02068B04234D04045A3
:100FE00032D0484530D050452ED058452CD09B4A61
:100FF0001832904228D0994A3032904224D0974AF1
:101000004832904220D0964A90421DD0944A1832DD
:10101000904219D0924A3032904200E0AFE113D0B2
:101020008F4A483290420FD08D4A603290420BD0A6
:101030008B4A7832904207D0894A9032904203D04E
:10104000874AA83290427DD1406910F0800F04D0C9
:10105000A960606D40F00200606594F85C000421B6
:1010600000F01F00814039423ED02068B04232D0AB
:10107000404530D048452ED050452CD058452AD038
:10108000764A1832904226D0744A3032904222D0AA
:10109000724A483290421ED0714A90421BD0704A28
:1010A0001832904217D06E4A3032904213D06C4AB8
:1010B000483290420FD06A4A603290420BD0684A60
:1010C0007832904207D0664A9032904203D0644A08
:1010D000A83290424ED1006810F0020F04D0A960EF
:1010E000606D40F00400606594F85C00102100F031
:1010F0001F008140394258D02068B04234D040456A
:1011000032D0484530D050452ED058452CD0534A87
:101110001832904228D0514A3032904224D04F4A5F
:101120004832904220D04E4A90421DD04C4A18324C
:10113000904219D04A4A3032904215D0484A48323B
:10114000904200E014E00FD0454A603290420BD04C
:10115000434A7832904207D0414A9032904203D0BD
:101160003F4AA832904207D1006800F0080006E02C
:10117000006872E70068B7E7006800F00400A0B1FB
:10118000A96020680168490304D50068000308D5F8
:10119000A16C07E00168C90503D4016821F00801CA
:1011A0000160216C09B12046884794F85C00202139
:1011B00000F01F008140394279D02068B04232D01F
:1011C000404530D048452ED050452CD058452AD0E7
:1011D000224A1832904226D0204A3032904222D001
:1011E0001E4A483290421ED01D4A90421BD01C4AD3
:1011F0001832904217D01A4A3032904213D0184A0F
:10120000483290420FD0164A603290420BD0144AB6
:101210007832904207D0124A9032904203D0104A5E
:10122000A832904203D1006800F0100002E000688C
:1012300000F00200B0B3A96094F8350004282068DB
:1012400001680FD049037ED5006800032BD4616C80
:101250002AE00000100002403C0000247000024020
:101260001004024021F0160101602068416921F05C
:1012700080014161206C08B9A06C20B12068016830
:1012800021F00801016094F85C303F21012003F057
:101290001F0300229940A96084F8350084F83420A7
:1012A000216D65E003E0E16B09B120468847606D80
:1012B00000287DD0606DC00759D02068042184F8D3
:1012C0003510B0422BD0404529D0484527D0504555
:1012D00025D0584523D09D49884220D09B491831BC
:1012E00088421CD099493031884218D098498842A8
:1012F00015D097491831884211D09549303188422C
:101300000DD093494831884209D0914960318842D3
:1013100005D08F497831884201D08D4990310168DC
:1013200021F00101016020680099019A491C009197
:10133000914202D80168C907F6D10068C00710D0F1
:1013400003200FE0FFE70168C905ACD40368012161
:10135000002223F01003036084F8351084F8342051
:10136000A1E7012084F83500002084F83400E16C06
:1013700000291DD002B02046BDE8F05F084775493E
:1013800088421DD073491431884219D071492831DF
:10139000884215D06F493C31884211D06D49503197
:1013A00088420DD06B496431884209D0694900E018
:1013B00084E07831884203D066498C3188427DD1FF
:1013C00094F85C800427016808F01F0807FA08F702
:1013D00017EA0C0F009746D04F0744D500980F042A
:1013E000686003D5C8033CD4A16CC1E7880638D433
:1013F0002068B0422DD055496039884229D04845EF
:1014000027D0504525D0584523D05049884220D078
:101410004E49183188421CD04C493031884218D08E
:101420004B49884215D04A491831884211D0484961
:10143000303188420DD046494831884209D0704544
:1014400007D0904205D0984203D04149A831884244
:1014500003D1016821F0080102E0016821F00401D4
:101460000160216C84E7022707FA08F717EA0C0FDE
:1014700000974ED08F074CD500980F04686003D5B5
:10148000C80344D4616C73E7880640D42068B04236
:101490002FD02E49603988422BD0484529D050455D
:1014A00027D0584525D02949884222D027491831CC
:1014B00088421ED025493031884200E044E018D0EF
:1014C0002349884215D022491831884211D0204939
:1014D000303188420DD01E494831884209D07045CC
:1014E00007D0904205D0984203D01949A8318842CC
:1014F00003D1016821F0140102E0016821F00A0122
:101500000160012184F83510002084F83400E16B7B
:101510002EE7082202FA08F212EA0C0F14D009078B
:1015200012D5016821F00E01016094F85C100120D1
:10153000002201F01F0100FA01F16960606584F882
:10154000350084F8342012E7BDE8FC9F8800024093
:1015500010040240085402582DE9F05F044600F0E0
:1015600011FB002C07467DD0E34E022120684FF08E
:101570000308DFF888934FF00005DFF884A3B0423A
:10158000DFF880B334D0DC4A1832904230D048457E
:101590002ED050452CD058452AD0DA4A18329042E5
:1015A00026D0D84A3032904222D0D64A4832904291
:1015B0001ED0D54A90421BD0D34A1832904217D041
:1015C000D14A3032904213D0CF4A483290420FD0A5
:1015D000CD4A603290420BD0CB4A7832904207D04D
:1015E000C94A9032904203D0C74AA83290427DD176
:1015F00084F83510B04284F834502ED0BE491831EA
:1016000088422AD0484528D0504526D0584524D075
:10161000BC491831884220D0BA49303188421CD0A8
:10162000B8494831884218D0B749884215D0B649E0
:101630001831884211D0B449303188420DD0B249B6
:101640004831884209D0B0496031884205D0AE495E
:101650007831884201D0AC499031016821F0010114
:10166000016008E027E100BF00F08CFAC01B0528EC
:1016700001D920211CE120680068C007F4D104F1E1
:1016800008002168D4E9053C8E4685C809681043E6
:10169000D4E907281F43636A38439C4F40EA0C0093
:1016A0001043394040EA0800042B40EA010003D10E
:1016B000D4E90B1211430843954909686FF30F01F0
:1016C000B1F1005F0FD36168A1F12902052A08D9A1
:1016D000163A032A05D9083A012A02D94F390329B3
:1016E00001D840F48010CEF8000000E023E020682C
:1016F000676A4069042F20F0070047EA00070DD110
:10170000D4E90A01074349B12046FFF791F828B10F
:1017100040206065012184F83510CCE020684761E5
:101720002046FEF7A3FF94F85C203F2102F01F0241
:101730009140816054E0774A90421BD0754B14333E
:10174000984217D0734B2833984213D0714B3C33D7
:1017500098420FD06F4B503398420BD06D4B64338F
:10176000984207D06B4B7833984203D0694B8C3347
:1017700098427DD184F8351084F83450664B016866
:10178000A26801EA030E402A73D0802A72D0002298
:10179000D4E90378D4E9053142EAD70242EAD8080D
:1017A0005C4AD4E9077C48EAD30848EAD10141EA17
:1017B000D701524241EA1C11142341EA0E01016093
:1017C00020681044B0FBF3F08000E0652046FEF78F
:1017D0004DFF94F85C20012102F01F02914041600E
:1017E0002068B04257D044491831884253D0484508
:1017F00051D050454FD058454DD0424918318842BC
:1018000049D040493031884245D03E49483188422C
:1018100041D03D4988423ED03B49183188423AD0B8
:1018200039493031884236D037494831884232D040
:101830003549603188422ED03349783188422AD0E8
:1018400031499031884226D02F49A831884222D090
:10185000304988421FD02F49143188421BD02D496E
:101860002831884217D02B493C31884213D002E0FE
:101870001DE017E018E02749503188420BD0254978
:101880006431884207D023497831884203D0214906
:101890008C31884229D12046FEF742FFA06880287B
:1018A0000CD00CE0102273E74FF4804270E7402127
:1018B000616584F835800120BDE8F09F6560216E88
:1018C00020790860D4E9190141606068401E07284A
:1018D00008D82046FEF772FFE06E0560D4E91C01CF
:1018E000416002E0E566256765670120656584F86B
:1018F00035000020E0E700001000024040000240F8
:101900005800024070000240100402403F8010FE68
:101910000010005C085402580F00FEFF70B504462A
:1019200000F030F90546601C02D0044800780444F9
:1019300000F028F9401BA042FAD370BD300000240B
:101940002DE9F84F03247D4D00234FF001094FF09E
:10195000B04B4FF00F0AE9E009FA03F73A4076D0AE
:101960000E7906F00306012E01D0022E18D1D0F810
:1019700008C04FEA430ECE6804FA0EF82CEA080CB1
:1019800006FA0EF646EA0C068660D0F804C00E7918
:101990002CEA070CC6F300169E4046EA0C06466089
:1019A0000E79F643B6070BD0C6684FEA43088F6836
:1019B00004FA08FC26EA0C0607FA08F73743C76062
:1019C0000E7906F00306022E12D1DE080F694FEAE7
:1019D000437C00EB8606B646366A4FEADC6C0AFAB0
:1019E0000CF807FA0CF726EA08063743CEF8207001
:1019F0000F7906684FEA430807F0030704FA08FC6A
:101A000007FA08F726EA0C06374307604E6816F413
:101A1000403F1CD04A4E376847F0020737603668AF
:101A20009F0706F00206009623F0030606F1B04673
:101A3000B6463F0FD6F80864DFF808810AFA07FCBB
:101A4000404526EA0C0603D14FF0000C41E06CE063
:101A5000DFF8F4C0604502D14FF0010C39E0DFF847
:101A6000ECC0604502D14FF0020C32E0DFF8E0C07C
:101A7000604502D14FF0030C2BE0DFF8D8C0604581
:101A800002D14FF0040C24E0DFF8CCC0604502D155
:101A90004FF0050C1DE0DFF8C4C0604502D14FF0E7
:101AA000060C16E0DFF8B8C0604502D14FF0070C15
:101AB0000FE0DFF8B0C0604502D14FF0080C08E03D
:101AC000DFF8A4C0604502D14FF0090C01E04FF0EF
:101AD0000A0C0CFA07FC4CEA060CCEF808C44F6856
:101AE000DBF80060FF0226EA020600D516435F46D7
:101AF000CBF80060D1F804C0DBF804605FEA8C2CFE
:101B000026EA020600D516437E606E684F6826EA14
:101B10000206BF0300D516436E602E684F6826EAA2
:101B20000206FF0300D516432E605B1C0A6832FADA
:101B300003F67FF411AFBDE8F88F00008000005875
:101B4000F4440258000002580004025800080258E9
:101B5000000C0258001002580014025800180258D5
:101B6000001C025800200258002402580AB181616A
:101B700070470904FBE7000001480068000C70474B
:101B80000010005C014880687047000030000024AD
:101B90000248816802781144816070473000002457
:101BA000032010B500F0B0F801F04CF80F4A1049CE
:101BB00014681368C4F3032203F00F038A5CC95C42
:101BC00002F01F0201F01F01D0400A4A20FA01F181
:101BD0001160094908600F2000F010F808B10120D9
:101BE00010BD00F051F8002010BD0000184402584C
:101BF000B8590008400000243C00002410B510280B
:101C000004468AB02CD200220146372000F05CF84E
:101C1000372000F04BF8174804601748016841F07E
:101C200020010160006809A900F0200008906846C2
:101C300000F094FF0598B0B100F0E0FF40000F49BC
:101C400000220F4CB0FBF1F10E4840F2E733046084
:101C5000C0E90332491EC0E9011201F02AFB28B194
:101C600001200AB010BD00F0C9FFE8E7054801F007
:101C700053FBF6E734000024E844025840420F00CA
:101C800000140040C0060024074882B0016841F0FB
:101C900002010160006800220F2100F002000090A4
:101CA000901E02B000F010B8F4440258002809DB7E
:101CB000410900F01F028900012001F1E02190405C
:101CC000C1F80001704700000E4BF0B41B680D46D0
:101CD000C3F30223C3F10706042E00D90426191DFD
:101CE000072901D2002300E0DB1E012404FA06F1DB
:101CF0009C40491E2940641E994014402143F0BC79
:101D000002F0C7BF0CED00E0064900F0070210B575
:101D10004FF6FF040868044B204040EA02201843B5
:101D2000086010BD0CED00E00000FA05134970B525
:101D30000A68D243520705D5096801F007018142BC
:101D400013D118E00A6822F0070202430A60FFF785
:101D500019FF0A4D4FF47A760446083D07E000BFAC
:101D6000FFF710FF001BB04201D9012070BD2868A9
:101D7000C0438004F4D4002070BD00000C48025819
:101D800010B500F019FF05490968054AC1F30211B1
:101D9000515C01F01F01C84010BD000020440258F2
:101DA000B8590008494930B5484C0B1D0A6814342D
:101DB00009681D68246802F00303C5F30012C1F32B
:101DC0000531C4F3CC04002914FB02F200EE102A02
:101DD000F8EE400A75D03F4A9FED3D1AB7EE000A73
:101DE0006BB1DFED3D1A012B01D0022B64D002EE66
:101DF000101A1168F8EE422A81EEA22A21E0334C33
:101E0000283C23689B0612D5344B246801EE901AB7
:101E10001168C4F3C104F8EE612AE34001EE903A80
:101E2000C1F30801F8EE611A81EEA22A0BE001EE7F
:101E3000901ADFED2B2A00BFF8EE611A116882EECE
:101E4000A12AC1F3080101EE901A1168F8EE611A97
:101E500040EE811A71EE800A62EE200AC1F346213B
:101E600001EE101AB8EE411A31EE001AC0EE811AD6
:101E7000BCEEE11A80ED001A1168C1F3064101EED3
:101E8000101AB8EE411A31EE001AC0EE811ABCEEFB
:101E9000E11A80ED011A1168C1F3066101EE101A12
:101EA000B8EE411A31EE000A80EE801ABCEEC10A8B
:101EB00080ED020A30BD04E001EE901ADFED092A40
:101EC000BAE70021016041608160F3E728440258CD
:101ED00000000039384402580024744A0090D003AE
:101EE0000024744C20BCBE4B494930B5484C0B1DF6
:101EF0000A681C3409681D68246802F00303C5F3EE
:101F00000022C1F30551C4F3CC04002914FB02F2F2
:101F100000EE102AF8EE400A75D03F4A9FED3D1AB8
:101F2000B7EE000A6BB1DFED3D1A012B01D0022B99
:101F300064D002EE101A1168F8EE422A81EEA22A4D
:101F400021E0334C283C23689B0612D5344B24688F
:101F500001EE901A1168C4F3C104F8EE612AE3405F
:101F600001EE903AC1F30801F8EE611A81EEA22A5F
:101F70000BE001EE901ADFED2B2A00BFF8EE611A9C
:101F8000116882EEA12AC1F3080101EE901A1168CE
:101F9000F8EE611A40EE811A71EE800A62EE200AB4
:101FA000C1F3462101EE101AB8EE411A31EE001AC3
:101FB000C0EE811ABCEEE11A80ED001A1168C1F37F
:101FC000064101EE101AB8EE411A31EE001AC0EEC9
:101FD000811ABCEEE11A80ED011A1168C1F30661A5
:101FE00001EE101AB8EE411A31EE000A80EE801AA6
:101FF000BCEEC10A80ED020A30BD04E001EE901A89
:10200000DFED092ABAE70021016041608160F3E752
:102010002844025800000039404402580024744A01
:102020000090D0030024744C20BCBE4B2DE9FC5F13
:10203000044650F8241B002500902E460801FE4F50
:10204000DFF8F8831DD5606E50B1B0F5801F0CD05D
:10205000B0F5001F0ED0B0F5401F1DD001250FE0D8
:10206000386840F40030386016E00221201D02F08C
:1020700035F803E00098022102F0C0F805000BD00B
:102080002E462088C00523D5606D05281ED2DFE8C6
:1020900000F00C11161B1B00626ED8F8001021F422
:1020A00040111143C8F80010EBE7386840F40030E5
:1020B000386009E00021201D02F010F803E00098CC
:1020C000002102F09BF805466DB100E001252E4687
:1020D0002088800528D5A06D80281ED00CDC90B10A
:1020E00040280ED114E0626DD8F8001021F00701ED
:1020F0001143C8F80010EBE7C02813D0B0F5807F7B
:1021000010D001250FE0386840F40030386009E055
:102110000021201D01F0E2FF03E00098002102F001
:102120006DF8054695B12E462088DFF810934005DE
:1021300009F108092CD5D4F8A400B0F5800F20D0FF
:102140000DDCA0B1B0F5001F0FD115E0A26DD8F8DD
:10215000001021F4E0711143C8F80010E4E7B0F575
:10216000C00F13D0B0F5000F10D001250FE0386874
:1021700040F40030386009E00021201D01F0AEFF7E
:1021800003E00098002102F039F8054675B12E46AB
:10219000208800052DD5D4F8A800B0F1007F21D00B
:1021A0000EDCA8B1B0F1807F10D116E0D4F8A420E5
:1021B000D9F8001021F460011143C9F80010E7E7D5
:1021C000B0F1407F13D0B0F1806F10D001250FE047
:1021D000386840F40030386009E00021201D01F02B
:1021E0007DFF03E00098002102F008F805466DB17C
:1021F0002E46206880011FD5A06CD8B110280FD0C2
:10220000202812D0302815D0012514E0D4F8A820B9
:10221000D9F8001021F0E0611143C9F80010E8E797
:10222000386840F40030386004E00221201D01F0DD
:1022300055FF05466DB12E462088C0042BD5E06DB4
:10224000B0F5005F20D00DDCA0B1B0F5805F0FD1FC
:1022500015E07A48A26C001F016821F0300111439B
:102260000160E9E7B0F5405F13D0B0F5804F10D0C2
:1022700001250FE0386840F40030386009E00021A3
:10228000201D01F02BFF03E00098002101F0B6FFB4
:10229000054685B12E462088800429D5206EB0F5EC
:1022A000403F23D010DC08B3B0F5803F14D0B0F528
:1022B000003F0FD115E0E26DD8F8001021F4E041A5
:1022C0001143C8F80010E6E7B0F5802F0ED0B0F546
:1022D000A02F0BD001250AE00121201D01F0FEFEF8
:1022E00003E00098012101F089FF05468DB12E46DB
:1022F000208840042AD5D4F8AC00B0F1405F23D048
:1023000010DC08B3B0F1805F14D0B0F1005F0FD1E2
:1023100015E0226ED8F8001021F4E0211143C8F82E
:102320000010E5E7B0F1804F0ED0B0F1A04F0BD018
:1023300001250AE00121201D01F0D0FE03E00098F4
:10234000012101F05BFF05466DB12E462088000497
:102350001FD5E06ED8B1B0F1805F0ED0B0F1005F54
:1023600010D0012514E0D4F8AC20D9F8001021F0E9
:10237000E0411143C9F80010E8E7386840F4003044
:10238000386004E00121201D01F0A8FE05466DB172
:102390002E462068C0011ED5606CD0B101280ED039
:1023A000022811D0032814D0012513E0E26ED8F8DA
:1023B000001021F040511143C8F80010E9E73868D7
:1023C00040F40030386004E00221201D01F086FE58
:1023D000054685B12E462068DFF85CB04002ABF1BF
:1023E0001C0B57D51648016841F480710160FFF756
:1023F000C9FB82460EE01148626C001F016821F0A3
:10240000030111430160E6E7FFF7BCFBA0EB0A0004
:1024100064283DD80A480068C005F5D57DBBDFF8C3
:102420001CA0B4F8B0200AF1200ADAF8001002F477
:10243000407001F4407105E02C44025850440258A9
:1024400000480258814211D0DAF80010DAF8002072
:1024500021F4407142F48032CAF80020DAF80020FA
:1024600022F48032CAF80020CAF80010D4F8B00074
:10247000B0F5807F21D1FFF785FB019019E008E0DE
:10248000FFF780FB0199411A41F28830814210D94F
:1024900003252E462078DFF844A4C0073DD0A06F66
:1024A000182838D026DC80B3082829D0102825D158
:1024B0002CE0DAF800008007E2D5D4F8B010C1F3C0
:1024C0000120032858460DD0016821F47C51016099
:1024D000B4F8B020DAF80010C2F30B021143CAF8C6
:1024E0000010D7E7FE4A036802EA111223F47C5178
:1024F0001143ECE720280ED028280CD001250BE052
:102500000121201D01F0EAFD04E004E00098012112
:1025100001F074FE05465DB12E46207880071ED579
:10252000606F062819D2DFE800F0160C1116161697
:10253000A26FDAF8001021F038011143CAF8001038
:10254000EBE70121201D01F0C9FD03E00098012106
:1025500001F054FE054675B100E001252E462078B5
:1025600040071FD5D4F89000062819D2DFE800F004
:10257000160C11161616626FDAF8001021F007011A
:102580001143CAF80010EAE70121201D01F0A6FD61
:1025900003E00098012101F031FE05469DB100E005
:1025A00001252E46207880062BD5D4F88C00B0F17A
:1025B000405F24D011DC10B3B0F1805F15D0B0F1D2
:1025C000005F10D116E0D4F89020D9F8001021F067
:1025D00007011143C9F80010E4E7B0F1804F0ED0B5
:1025E000B0F1A04F0BD001250AE00021201D01F021
:1025F00075FD03E00098022101F000FE05468DB153
:102600002E46207840062BD5D4F89800B0F5406FC0
:1026100024D011DC10B3B0F5806F15D0B0F5006F89
:1026200010D116E0D4F88C20DAF8001021F0E04147
:102630001143CAF80010E4E7B0F5805F0ED0B0F5A2
:10264000A05F0BD001250AE00021201D01F046FD0E
:1026500003E00098022101F0D1FD05468DB12E4620
:10266000207800062BD5D4F89C00B0F5C04F24D0BC
:1026700011DC10B3B0F5005F15D0B0F5804F10D16C
:1026800016E0D4F89820D9F8001021F4E051114355
:10269000C9F80010E4E7B0F5004F0ED0B0F5204FB8
:1026A0000BD001250AE00021201D01F017FD03E0F9
:1026B0000098022101F0A2FD05464DB12E4620787A
:1026C00000071ED5D4F88000B0F5805F0AD00FE077
:1026D000D4F89C20D9F8001021F460411143C9F8C6
:1026E0000010ECE70098022101F088FD00B10126FE
:1026F000D4F88020DAF8001021F440511143CAF8D0
:1027000000102078C00613D5D4F89400B0F5807F6F
:1027100005D10098022101F071FD00B10126D4F825
:102720009420D9F8001021F440711143C9F8001029
:102730002068000316D5D4F8A00038B1B0F5803F6A
:1027400009D0B0F5003F0BD001250AE00021201D83
:1027500001F0C4FC03E00098022101F04FFD0546A2
:1027600085B12E462068400322D5D4F88400B0F508
:10277000801F11D0B0F5001F13D0B0F5401F15D049
:10278000012514E0D4F8A020D9F8001021F440313C
:102790001143C9F80010E5E7386840F400303860AC
:1027A00004E00098012101F029FD054655B12E46AF
:1027B0002068C0031CD5E06C70B1B0F5803F10D02C
:1027C000012514E0D4F88420DAF8001021F4401137
:1027D0001143CAF80010EBE7386840F40030386065
:1027E00004E00221201D01F079FC0546CDB12E4602
:1027F0002068800005D50098022101F0FFFC00B19F
:102800000126206880031BD5E06FB8B1B0F5807F4A
:1028100010D0B0F5007F11D0B0F5407F0ED001256B
:102820000DE02E48E26C0838016821F48031114334
:102830000160DDE7386840F400303860F5B32E46BB
:102840002068C00207D5226FD8F8001021F000419F
:102850001143C8F800102068C00008D5D4F8B4208F
:10286000DBF8001021F480411143CBF80010206800
:10287000800207D5A26ED8F8001021F080711143B4
:10288000C8F80010206840000CD5DBF8001021F4D7
:102890000041CBF80010DBF80010D4F8B820114349
:1028A000CBF800102068002807DA0C48226D0838A1
:1028B000016821F040511143016000E014E02068FC
:1028C000000208D5D4F88820DAF8001021F440017D
:1028D0001143CAF8001086B1012003E054440258A5
:1028E000CFFFFF00BDE8FC9FE26FDAF8001021F493
:1028F00040711143CAF80010A2E70020EDE7000084
:102900002DE9F05F04000F467ED0DFF83882D8F85A
:10291000000000F00F00B8420CD2D8F8001021F0EF
:102920000F013943C8F80010D8F8000000F00F007C
:10293000B84269D12078844D40070AD520692968BA
:1029400001F07001884204D9296821F07001014327
:10295000296020787C4E361D00070AD560693168F1
:1029600001F07001884204D9316821F070010143FF
:1029700031602078C0060AD5A069316801F4E061B1
:10298000884204D9316821F4E06101433160207844
:10299000DFF8B4B180060BF1080B0CD5E16958469D
:1029A000DBF8002002F07002914204D9026822F0A4
:1029B00070020A430260207880070AD5E06829681F
:1029C00001F00F01884204D9296821F00F01014369
:1029D00029602078C0073ED05B49A2682868183972
:1029E00020F47060104328606068022818D0032823
:1029F00019D00968012819D0490700294ADADFF8F7
:102A000048A1AAF1080A00E044E0DAF8002022F028
:102A100007020243CAF80020FFF7B4F8814612E02B
:102A200009688903E9E709688901E6E7C905E4E778
:102A3000FFF7A8F8A0EB090141F28830814202D9E2
:102A40000320BDE8F09F6168DAF8000000F038006C
:102A5000B0EBC10FECD1207880070AD5E068296877
:102A600001F00F01884204D2296821F00F010143CF
:102A70002960D8F80010404601F00F01B9420BD987
:102A8000016821F00F0139430160006800F00F0078
:102A9000B84201D00120D4E7207840070AD5206948
:102AA000296801F07001884204D2296821F0700180
:102AB00001432960207800070AD56069316801F078
:102AC0007001884204D2316821F070010143316005
:102AD0002078C0060AD5A069316801F4E061884217
:102AE00004D2316821F4E06101433160207880062E
:102AF0000CD5E1695846DBF8002002F070029142E3
:102B000004D2026822F070020A43026000F09AF8D0
:102B10000E492A682B68C2F3032203F00F038A5C74
:102B2000C95C02F01F0201F01F01D040084A20FAE0
:102B300001F111600749086007480068BDE8F05FCF
:102B4000FFF75CB80020005218440258B85900083A
:102B5000400000243C0000243400002470B5144CD4
:102B60003F220260124A24680832131D114D04F0FE
:102B70000704446016681C1D06F4706686601668BB
:102B800006F00F06C660126802F0700202611A6851
:102B900002F0700242611A6802F4E0628261226807
:102BA00002F07002C261286800F00F00086070BD7A
:102BB000104402580020005230B500F043F80B4A90
:102BC0000B490C4B15681468C5F3032204F00F047D
:102BD0008A5C095D02F01F0201F01F01D040064A25
:102BE00020FA01F119601060084630BD18440258FF
:102BF000B8590008400000243C00002400B5FFF74D
:102C0000DBFF05490968054AC1F30211515C01F077
:102C10001F01C84000BD00001C440258B8590008FC
:102C200000B5FFF7C9FF05490968054AC1F302214C
:102C3000515C01F01F01C84000BD00001C44025857
:102C4000B8590008454970B545480968434B103BE1
:102C500011F0380208D00111082A03D0102A0BD035
:102C6000182A0BD0084670BD19688906FBD519686B
:102C7000C1F3C101C84070BD3A4870BD3749374DF6
:102C800018310C1D24350A68096826682D6802F081
:102C9000030406F00102C1F30511C5F3CC0515FBD1
:102CA00002F200EE102AB8EE400AE9B32F4ADFED37
:102CB0002E0AB7EE001A6CB1DFED2D1A012C01D0EF
:102CC000022C43D002EE101A1068F8EE422A81EE70
:102CD000A22A1EE01C68A40611D51B6801EE901AFA
:102CE0001168C3F3C103F8EE612AD84001EE900ADF
:102CF000C1F30800F8EE611A81EEA22A0BE001EEA2
:102D0000901ADFED1C2A00BFF8EE611A106882EEFF
:102D1000A12AC0F3080001EE900AF8EE611A40EE15
:102D2000201A31EE810A00E015E022EE000A106858
:102D3000C0F34620401C00EE900AF8EE600A80EED8
:102D4000201ABCEEC10A10EE100A70BD01EE901AF6
:102D5000DFED092AD8E7002070BD000010440258BA
:102D60000090D00340787D010000003930440258C3
:102D70000024744A0024744C20BCBE4B2DE9F05F43
:102D800004007DD0FF4F2078FE4D1837DFF8F49314
:102D9000103DC00748D0D9F80000396800F038006D
:102DA000102815D0182803D101F0030002280FD0F5
:102DB0006068B0F5803F12D010B1B0F5A02F18D0E8
:102DC000286820F480302860286820F4802009E0FA
:102DD0002868800328D560680028D2D024E02868BD
:102DE00040F480302860606888B1FEF7CBFE06466C
:102DF00009E0286840F480202860F0E7FEF7C2FE72
:102E0000801B64286FD828688003F7D50CE0FEF794
:102E1000B9FE064605E000BFFEF7B4FE801B64283D
:102E2000F0D828688003F7D4207841F20308D54E03
:102E30000C3E800769D5D9F80000396810F03800D9
:102E40000ED0182801D188070AD0E06890B329680D
:102E500021F0190101432960FEF794FE824631E01A
:102E60002868400702D5E06800288AD0E168286811
:102E700020F0190008432860FEF784FE824607E030
:102E8000DFE000BFFEF77EFEA0EB0A000228B9D803
:102E900028684007F6D500BFFEF76EFE40451BD8F8
:102EA0002069402812D0316821F47C3141EA003099
:102EB00030602AE018E000BFFEF764FEA0EB0A00D5
:102EC00002289FD828684007F6D5E5E7306820F447
:102ED0007C3040F40030EBE7207C316821F0FE418B
:102EE00041EA0060E4E70DE1286820F00100286075
:102EF000FEF748FE824605E0FEF744FEA0EB0A001E
:102F000002288DD828684007F6D42078C0065DD501
:102F1000D9F80000DFF86CB2396800F03800ABF186
:102F2000040B082810D0182803D101F00300012851
:102F30000AD0E0690028286838D040F08000286076
:102F4000FEF720FE824623E02868C00523D5E0690D
:102F5000802876D11FE0206A202821D0316821F016
:102F6000F84141EA8060306030E000BF94F8201002
:102F7000DBF8002022F07C5242EA0161CBF800101D
:102F800024E000BFFEF7FEFDA0EB0A00022898D85F
:102F90002868C005F6D5FEF7EFFD4045E6D8DAE72C
:102FA000306820F0F84040F08040DCE720F08000FE
:102FB0002860FEF7E7FD064605E000BFFEF7E2FDEC
:102FC000801B02289DD82868C005F7D42078000708
:102FD00029D56C486169643000298046016811D0A8
:102FE00041F001010160FEF7CDFD064605E000BF9E
:102FF000FEF7C8FD801B0228C9D8D8F8000080075A
:10300000F6D510E021F001010160FEF7BBFD064698
:1030100005E000BFFEF7B6FD801B022872D8D8F885
:1030200000008007F6D42078800623D5A069002808
:10303000286810D040F480502860FEF7A3FD0646B3
:1030400005E02CE1FEF79EFD801B02285AD8286877
:103050008004F7D50EE020F480502860FEF792FD42
:10306000064604E0FEF78EFD801B02284AD8286839
:103070008004F7D4207840074FD5DFF80C81D8F8CA
:10308000001041F48071C8F80010FEF77BFD064681
:1030900005E000BFFEF776FD801B642832D8D8F823
:1030A0000000C005F6D5374EA068603601280AD06A
:1030B00008B1052813D0306820F001003060306876
:1030C00020F0040002E0306840F001003060A068A9
:1030D00041F2883A90B1FEF755FD80460AE030682B
:1030E00040F004003060EEE7FEF74CFDA0EB080175
:1030F000514507D830688007F6D50EE0FEF742FD4F
:10310000804607E084E000BFFEF73CFDA0EB08012D
:1031100051457DD830688007F6D4606AB0B3DFF8D7
:103120006480D9F8001008F12008C1F3C201032916
:103130006FD00228286820F08070286003D0FEF746
:1031400021FD044680E0FEF71DFD064605E000BFB8
:10315000FEF718FD801B022873D828688001F7D479
:10316000E26A40F2F331386854F8283F884340EA75
:10317000021018433860217B4FF4FE0C22894FF077
:10318000FE4704E0104402580048025889E0208AB3
:103190004902521E267DA1F5007189B2401EC2F37C
:1031A00008021143761E0CEA004001433E4807EA3C
:1031B000066211433C4AC8F800100832016821F049
:1031C0000101016011684FF6F876236AB14341EAC4
:1031D000C30111600168A26921F00C011143016073
:1031E0000168E26921F0020111430160016841F4C4
:1031F00080310160016841F400310160016841F4EF
:1032000080210160016841F001010160286801E04E
:1032100017E01DE040F080702860FEF7B3FC044624
:1032200005E000BFFEF7AEFC001B022809D82868A5
:103230008001F7D535E000BFFEF7A4FC001B022893
:1032400002D90320BDE8F09F28688001F4D428E06B
:1032500039680128D8F8000021D0A26A01F00303E0
:1032600093421CD1E26AC1F305118A4217D1216B46
:10327000C0F30802491E8A4211D1616BC0F3462295
:10328000491E91420BD1A16BC0F30642491E9142E7
:1032900005D1E16BC0F30660491E814201D00120D7
:1032A000D0E70020CEE700002C440258704770475A
:1032B000704710B5040003D094F83D0010B107E04A
:1032C000012010BD002084F83C00204600F022F8C8
:1032D000022084F83D002068211D01F033F901200F
:1032E00084F8480084F83E0084F83F0084F84000E9
:1032F00084F8410084F8420084F8430084F84400D4
:1033000084F8450084F8460084F8470084F83D00BE
:10331000002010BD7047000090F83D10012901D039
:1033200001207047174A022180F83D100168CB68E0
:1033300043F00103CB600068904214D0B0F1804F9D
:1033400011D0114988420ED0104988420BD0104943
:10335000884208D00F49884205D00F49884202D0E0
:103360000E49884207D181680D4A1140062906D0CE
:10337000B1F5803F03D0016841F0010101600020F8
:1033800070470000000001400004004000080040B9
:10339000000C0040000401400018004000400140C3
:1033A00007000100704770B50446006800250169F8
:1033B000C943890715D4C168C943890711D4EA1ED6
:1033C000026101212177206880698007204602D0B0
:1033D000FFF7E8FF04E000F0A7F8204600F0A5F8AA
:1033E000257720680169C943490717D4C168C943D3
:1033F000490713D402216FF004020261217720688B
:10340000806910F4407F204602D0FFF7CBFF04E034
:1034100000F08AF8204600F088F8257720680169D6
:10342000C943090716D4C168C943090712D4042146
:103430006FF00802026121772068C069800720468A
:1034400002D0FFF7AFFF04E000F06EF8204600F076
:103450006CF8257720680169C943C90617D4C1688B
:10346000C943C90613D408216FF010020261217705
:103470002068C06910F4407F204602D0FFF792FF19
:1034800004E000F051F8204600F04FF8257720685E
:103490000169C943C90708D1C168C943C90704D133
:1034A000891E0161204600F041F820680169C94386
:1034B000090609D4C168C943090605D46FF0800123
:1034C00001612046FFF7F3FE20680169C943C90581
:1034D00009D4C168C943090605D46FF4807101613C
:1034E0002046FFF7E3FE20680169C943490609D475
:1034F000C168C943490605D46FF040010161204607
:1035000000F01EF820680169C94389060BD4C16820
:10351000C943890607D46FF0200101612046BDE848
:103520007040FFF7C5BE70BD704770470068034923
:10353000884201D1FEF72CBB704700000014004008
:10354000704730B590F88010012918D0012280F81A
:1035500080202421C0F884100022202450F8641B0D
:103560000B680D6823F0005325F001050D60026023
:1035700050F8641C0B6004620277104630BD0220D4
:1035800030BD7047704770B5044690F88000012840
:103590001DD0012284F880202420C4F884002068F3
:1035A0000568026822F0010202602068826822F049
:1035B00060620A438260204601F02CF822682021D4
:1035C00000201560C4F8841084F8800070BD0220CB
:1035D00070BD70B5044690F8800001281DD001220E
:1035E00084F880202420C4F88400206805680268DC
:1035F00022F0010202602068826822F060420A43E1
:103600008260204601F006F8226820210020156023
:10361000C4F8841084F8800070BD022070BD70472B
:10362000704770472DE9F04103680446002540F6D5
:103630000F06D86919689A68304209D186067DD587
:1036400001F0200602F080573E4377D0216F62E1FF
:10365000C64EC74F16400F4037436FD0C70709D03B
:10366000CF0507D501271F62D4F88C3043F0010342
:10367000C4F88C3083070AD5D30708D02768022303
:103680003B62D4F88C3043F00403C4F88C30430719
:103690000AD5D30708D0276804233B62D4F88C30BE
:1036A00043F00203C4F88C3003070CD501F020036B
:1036B000334308D0266808233362D4F88C3043F0B3
:1036C0000803C4F88C3003050BD54B0109D52668D7
:1036D0004FF400633362D4F88C3043F02003C4F815
:1036E0008C30D4F88C30002B3AD0800609D501F00C
:1036F000200002F08051084303D0216F09B1204619
:1037000088472168D4F88C008968490602D410F0F3
:10371000280F27D0204601F03DF820688068400639
:103720001BD52068083050E8001F21F0400140E818
:103730000012002AF5D1E06F78B100E018E08D4961
:103740000165E06FFDF752FA002809D0E06F016DC6
:1037500000E02046BDE8F04108472046FFF761FF42
:10376000BDE8F0812046FFF75CFFC4F88C50F7E716
:10377000E76E2026012F7CD1C7067AD5CF0678D5F3
:10378000102018622068806840067DD5E16F7A4A73
:103790000868904234D0784A1832904230D0764A45
:1037A000303290422CD0744A4832904228D0724A2B
:1037B0006032904224D0704A7832904220D06E4AD3
:1037C000903290421CD06C4AA832904218D06B4A7A
:1037D000904215D0694A1832904211D0674A30326F
:1037E00090420DD0654A4832904209D0634A603217
:1037F000904205D0614A7832904201D05F4A9032BF
:1038000040680004000CABD0B4F85C208242A7D919
:10381000A4F85E00C869B0F5807F2ED0216851E819
:10382000000F20F4807041E80002002AF6D12068E1
:10383000083050E8001F21F0010140E80012002A82
:10384000F5D12068083050E8001F21F0400140E821
:103850000012002AF5D1C4F88860E566216851E8B5
:10386000000F20F0100041E80002002AF6D1E06FBE
:1038700001E03BE008E0FDF709F8B4F85C00B4F8BB
:103880005E10401A81B22DE0B4F85C00B4F85E100E
:10389000B4F85E20401A81B2002AB4D00029B2D018
:1038A000226852E8000F20F4907042E80003002BD9
:1038B000F6D1334B226802F1080252E8000F00EA09
:1038C000030042E80007002FF4D1C4F88860E566E1
:1038D0002567226852E8000F20F0100042E800033C
:1038E000002BF6D12046FFF74CFE39E7C70209D579
:1038F000570207D54FF4801018622046BDE8F0410A
:10390000FFF78EBE03060AD501F0800302F4000221
:10391000134304D0616F00297FF41BAF20E74206F8
:1039200011D54A060FD52046026852E8001F21F043
:10393000400142E80013002BF6D1C0F884604567CF
:1039400000F0A0F90CE7020206D54A0004D5204693
:10395000BDE8F041FFF763BEC001C6D50029C4DA57
:103960002046BDE8F041FFF70DBE00000100001049
:1039700020010004814700081000024010040240AA
:10398000FEFFFFEF10B5040003D0D4F8840010B19F
:1039900007E0012010BD002084F88000204600F0E0
:1039A00027F82420C4F884002068016821F0010170
:1039B0000160204600F018FF0128EBD0A06A10B18A
:1039C000204600F049FE2068416821F490414160A2
:1039D0002068816821F02A0181602068016841F037
:1039E000010101602046BDE8104000F099BE0000D2
:1039F0002DE9F04FB5B0074614212FA8FCF7C5FDFF
:103A0000BC216846FCF7C1FD934D00249349022672
:103A10003868083DDFF840B24FF0030988424FF0A4
:103A200001082CD1684600961D94FEF7FFFA08B1F4
:103A3000FCF729FFDBF8001041F48011CBF80010EF
:103A4000DBF8000000F480103490286840F0020099
:103A5000286028682FAB4FF4405100F0020083E843
:103A600042030E22CDE933207D482FA9FDF768FFE0
:103A7000002205213520FEF727F935205CE0794941
:103A80004FF0070A88425CD1CDF8008068461E944A
:103A9000FEF7CCFA08B1FCF7F6FE6F480830016873
:103AA00041F010010160006800F0100034902868B7
:103AB00040F00100286028682FAA4FF4C06300F08E
:103AC00001002FA9CDE933A082E848036648FDF73D
:103AD00037FF664E2923664A4FF480684FF48039D9
:103AE000304686E81C00C6E903487461B461C6E943
:103AF00007497462FDF730FD08B1FCF7C4FE5B4D69
:103B00002A225B4940237835FE671831B76328467F
:103B100085E81E016C61AC61C5E907496C62FDF77F
:103B20001BFD08B1FCF7AFFEBD6700220521AF63A6
:103B30002520FEF7C9F82520FEF7B8F835B0BDE816
:103B4000F08F4C4988422AD1684600961D94FEF7B2
:103B50006DFA08B1FCF797FEDBF8001041F4003174
:103B6000CBF80010DBF8000000F400303490286837
:103B700040F00100286028682FAB0C2200F0010003
:103B80002FA9CDE933A083E844033748FDF7D8FED9
:103B9000002205212620FEF797F82620CCE736499B
:103BA00088422BD1684600961D94FEF73FFA08B173
:103BB000FCF769FEDBF8001041F48021CBF800101F
:103BC000DBF8000000F480203490286840F0020008
:103BD000286028682FAB4FF4406200F002002FA944
:103BE000CDE933A083E844031D48FDF7A9FE002278
:103BF00005212720FEF768F827209DE71F49884206
:103C00009CD1CDF8008068461E94FEF70FFA08B1EB
:103C1000FCF739FE10480830016841F020010160CE
:103C2000006800F020003490286840F0040028600C
:103C300028682FABC02200F004002FA9CDE933A0E3
:103C400083E844030E48FDF77BFE00220521472050
:103C5000FEF73AF847206FE7E8440258005000406A
:103C6000000402580010014000000258D005002452
:103C70001000024000440040004800400014014091
:103C8000000802587047FEE710B50C4C70B10022D6
:103C900020460221FDF76AFF002220460121FDF7A0
:103CA00065FFBDE81040C820FDF738BE0122204660
:103CB0000221FDF75BFF0122EFE70000000402583C
:103CC0000D4808B5016841F001010160006800225B
:103CD000052100F0010000900B20FDF7F5FF0B20FF
:103CE000FDF7E4FF002205210C20FDF7EDFFBDE804
:103CF00008400C20FDF7DABFD844025810B5D4B004
:103D000042491C226846FCF70EFC0021684601F07F
:103D10003CF83F4C1C223D491C31206007A8FCF7B1
:103D200002FC002107A801F030F838491C2260602D
:103D30000EA83831FCF7F7FB00210EA801F025F89A
:103D400032491C22A06015A85431FCF7ECFB00217D
:103D500015A801F01AF82D491C22E0601CA870314A
:103D6000FCF7E1FB00211CA801F00FF827491C22F9
:103D7000206123A88C31FCF7D6FB002123A801F099
:103D800004F822491C2260612AA8A831FCF7CBFB69
:103D900000212AA800F0F9FF1C491C22A06131A8CB
:103DA000C431FCF7C0FB002131A800F0EEFF174939
:103DB0001C22E06138A8E031FCF7B5FB002138A8EF
:103DC00000F0E3FF11491C2220623FA8FC31FCF700
:103DD000AAFB00213FA800F0D8FF0E491C22606218
:103DE00046A8FCF7A0FB002146A800F0CEFF094939
:103DF0001C22A0624DA81C31FCF795FB00214DA8A8
:103E000000F0C3FFE06254B010BD00003858000855
:103E1000000000245059000870B586B0142168468F
:103E2000FCF7B3FB2548016841F00401016001681B
:103E300001F004010591016841F080010160016811
:103E400001F080010591016841F001010160016804
:103E500001F001010591016841F002010160006873
:103E60000022174E032100F0020005903046FDF7B6
:103E70007DFE00256946012402946003CDE900051A
:103E80001048FDF75DFD022000946946CDE9015020
:103E90000D48FDF755FD0C206946CDE900050B489E
:103EA0000294FDF74DFD03213046CDE90014CDE924
:103EB00002416946FDF744FD06B070BDE04402587A
:103EC000000402580008025800000258001C025862
:103ED0001848002110B5164C0C224FF4E133046051
:103EE000C0E90131C160C0E904128161C1610162B0
:103EF00041628162FFF746FD08B1FCF7C4FC0D4842
:103F00000021FFF766FB08B1FCF7BDFC0948002162
:103F1000FFF739FB08B1FCF7B6FC0648FFF711FBC9
:103F2000002803D0BDE81040FCF7ADBC10BD000078
:103F300000500040000300241848002110B5164C22
:103F40000C224FF4E1330460C0E90131C160C0E9E3
:103F500004128161C161016241628162FFF712FD59
:103F600008B1FCF790FC0D480021FFF732FB08B1C7
:103F7000FCF789FC09480021FFF705FB08B1FCF7B5
:103F800082FC0648FFF7DDFA002803D0BDE81040A8
:103F9000FCF779BC10BD0000001001409003002424
:103FA0001848002110B5164C0C224FF4E133046080
:103FB000C0E90131C160C0E904128161C1610162DF
:103FC00041628162FFF7DEFC08B1FCF75CFC0D4842
:103FD0000021FFF7FEFA08B1FCF755FC0948002163
:103FE000FFF7D1FA08B1FCF74EFC0648FFF7A9FA33
:103FF000002803D0BDE81040FCF745BC10BD000010
:1040000000440040200400241848002110B5164C3C
:104010000C224FF4E1330460C0E90131C160C0E912
:1040200004128161C161016241628162FFF7AAFCF1
:1040300008B1FCF728FC0D480021FFF7CAFA08B1C7
:10404000FCF721FC09480021FFF79DFA08B1FCF7B5
:104050001AFC0648FFF775FA002803D0BDE81040A7
:10406000FCF711BC10BD000000480040B004002463
:104070001848002110B5164C0C224FF4E1330460AF
:10408000C0E90131C160C0E904128161C16101620E
:1040900041628162FFF776FC08B1FCF7F4FB0D4842
:1040A0000021FFF796FA08B1FCF7EDFB0948002163
:1040B000FFF769FA08B1FCF7E6FB0648FFF741FA9B
:1040C000002803D0BDE81040FCF7DDBB10BD0000A8
:1040D0000014014040050024FEE7FEE72DE9F0470B
:1040E000454D044689464FF0000A2868C0438007C2
:1040F0000AD0414E283E306820F080603060FDF7E5
:1041000041FD0746B04608E00120BDE8F08700BF4A
:10411000FDF738FDC01B022867D8D8F80000000161
:10412000F6D4206829684FF4FE0721F47C313E0262
:1041300041EA00302860207AA389B4F804C0400224
:104140002D4D2D495B1E227CACF1010C1035091D53
:10415000A0F5007080B2521ECCF3080C07EA0343AE
:1041600040EA0C00184306EA02621043286008681F
:10417000626920F0C000104308600A68A06922F05C
:10418000200202430A60281D0A6822F010020A6019
:1041900002684FF6F873E4699A4342EAC402026087
:1041A0000868B9F1000F40F010020A6011D00868E9
:1041B000B9F1010F11D040F400100860D8F80000E8
:1041C000444640F08060C8F80000FDF7DBFC05467F
:1041D0000DE0086840F40020EFE740F48010ECE7C1
:1041E000FDF7D0FC401B022801D903208DE7206891
:1041F0000001F5D5504688E7284402582DE9F047DC
:10420000454D044689464FF0000A2868C0438007A0
:104210000AD0414E283E306820F080503060FDF7D3
:10422000B1FC0746B04608E00120BDE8F08700BFBA
:10423000FDF7A8FCC01B022867D8D8F80000800052
:10424000F6D4208829684FF4FE0721F07C713E02E5
:1042500041EA00502860207AA389B4F804C04002E3
:104260002D4D2D495B1E227CACF1010C1835091D2A
:10427000A0F5007080B2521ECCF3080C07EA03438D
:1042800040EA0C00184306EA0262104328600868FE
:10429000626920F44060104308600A68A06922F453
:1042A000007202430A60281D0A6822F480720A60C4
:1042B00002684FF6F873E4699A4342EAC402026066
:1042C0000868B9F1000F40F480720A6011D00868E4
:1042D000B9F1010F11D040F080700860D8F80000EB
:1042E000444640F08050C8F80000FDF74BFC0546FE
:1042F0000DE0086840F48000EFE740F40000ECE7D0
:10430000FDF740FC401B022801D903208DE72068FF
:104310008000F5D5504688E728440258012000F077
:1043200028FDFBE7012000F024FD0020FFF7ACFC96
:104330000120FFF7A9FCF5E7012000F01ABD0120DC
:1043400000F017FDFBE7012000F013FDFBE7012063
:1043500000F00FFDFBE7012000F00BFDFBE7012063
:1043600000F007FDFBE7012000F003FDFBE7012063
:1043700000F0FFFCFBE7012000F0FBFCFBE7012065
:1043800000F0F7FCFBE70000502010B580F3118827
:10439000BFF34F8FBFF36F8F01F080F918B104495D
:1043A0004FF080500860002080F3118810BD00009D
:1043B00004ED00E030B59DB04C216846FCF7E5F80F
:1043C000202113A8FCF7E1F80220FDF7AFFC2148FB
:1043D00000242149026842F44042026002680A68EF
:1043E00042F001020A60096801F001011B910168B5
:1043F0008904FCD5022000904025049501210391F9
:1044000004220B923C23CDE90904CDE90C300FAB1B
:104410000E900C2183E8130068461294FEF7AEFC60
:1044200008B172B6FEE708221A95CDE91625D30128
:1044300013AA3F200321CDE9185382E81300042179
:1044400013A8FEF75DFA002801D072B6FEE71DB092
:1044500030BD0000184802582C0400582C48F0B514
:104460002C4A016841F470010160106800F00F00EF
:10447000072804D2106820F00F00C01D10602649E4
:104480000020254C10340B68244D43F001030B60D1
:1044900020600B682B400B60136803F00F03072BA1
:1044A00004D9136823F00F03DB1D13601A4C1C4A58
:1044B00018341C4B261D371D2060174C1A4D28340C
:1044C0003060261D3860371D23603B1D35601C1D84
:1044D0003A60251D2E1D1860331D22602860326051
:1044E00018600A680C4B114C22F4802260330A6079
:1044F000186020686FF30F00B0F1005F03D20C4921
:104500000120C1F8080143F2D2000A490860F0BD59
:1045100088ED00E000200052004402587FEDF6EAEA
:1045200080020101000202020000FF010010005C95
:1045300000800051004000520148FEF734BF0000E7
:10454000C00600242DE9F047274B4FF0804A274D45
:1045500002689842264E274F274C09D0504507D075
:10456000A84205D0B04203D0B84201D0A04205D144
:10457000D1F804C022F070024CEA0202DFF87CC0DD
:10458000DFF87C809842DFF87C900FD050450DD04A
:10459000A8420BD0B04209D0B84207D0A04205D003
:1045A000604503D0404501D0484503D1CD6822F491
:1045B00040722A434D6922F080022A4302609842E9
:1045C0008A68C2620A68826207D0A04205D060454C
:1045D00003D0404501D0484501D10969016301215B
:1045E0004161BDE8F0870000000001400004004088
:1045F00000080040000C0040000401400040014061
:1046000000440140004801400148FFF70BB800009A
:104610000003002430B5416EB9B101680D4B03F1C0
:1046200008048A688968C2F34262490F5D5C615C74
:104630002D01B5FBF1F1A0F86A10995CA25C0901AB
:10464000B1FBF2F1A0F8681030BD0121A0F86A10AA
:10465000F8E70000A859000890F82810C90706D00C
:104660000168C36A4A6822F400321A434A6090F82B
:104670002810890706D50168036B4A6822F4803246
:104680001A434A6090F82810490706D50168436B21
:104690004A6822F480221A434A6090F828100907D9
:1046A00006D50168836B4A6822F400421A434A60C7
:1046B00090F82810C90606D50168C36B8A6822F4F1
:1046C00080521A438A6090F82810890606D501683E
:1046D000036C8A6822F400521A438A6090F828100A
:1046E000490611D50168436C4A6822F480121A43C6
:1046F0004A60416CB1F5801F06D10168836C4A683D
:1047000022F4C0021A434A6090F82810090606D520
:104710000168C26C486820F400201043486070476C
:10472000F8B500260446C0F88C60FDF72BFA054664
:1047300020686FF07E470068000708D500222B46EE
:104740004FF400112046009700F024FA60B9206869
:10475000006840070AD500222B464FF4800120460E
:10476000009700F017FA08B10320F8BD2020C4F824
:104770008400C4F88800E666002084F88060F8BDF4
:1047800010B5806B0021A0F85E10A0F85610FEF75F
:1047900048FF10BD10B5026852E8001F21F4907167
:1047A00042E80013002BF6D10E4B0268083252E8A3
:1047B000001F194042E80014002CF6D1C16E0129F7
:1047C00008D1026852E8001F21F0100142E80013EE
:1047D000002BF6D100212022C0F88820C166016795
:1047E00010BD0000FEFFFFEF2DE9F0430446806896
:1047F000D84E87B0D84B2168D4E90427D4F81CC020
:1048000010430A68002547EA0C0738433240024348
:104810000A602068E268416821F440511143416018
:104820002268A1699A4201D0206A01439768DFF8A3
:104830002CC3CB4ECB4807EA0C070F439760216887
:10484000676ACA6A22F00F023A43CA622268B24219
:104850000ED1006800F03800182873D047DCB8B3D8
:10486000082879D010286FD178E028287ED17BE005
:10487000BD498A4209D1006800F00700062875D2B8
:10488000DFE800F0546A6C6E7072B8498A4209D150
:10489000006800F00700062868D2DFE800F0475DF6
:1048A0005F616365B2498A4209D1006800F0070080
:1048B00006285BD2DFE800F03A5052545658AD4912
:1048C0008A420BD1006800F0070006284ED200E0B3
:1048D00010E0DFE800F02B4143454749A6498A42F2
:1048E0000AD1006800F03800182839D0B7DD202838
:1048F000BBD13CE001203AE0A0498A4209D10068DE
:1049000000F00700062831D2DFE800F01026282A40
:104910002C2E9B498A420BD1006800F00700062824
:1049200024D2DFE800F003191B1D1F2100201EE028
:104930009A421BD18B48001D006800F00700062832
:1049400014D202E00CE007E010E0DFE800F003051D
:1049500007090B0D02200AE0042008E0082006E009
:10496000102004E0202002E0402000E08020854963
:10497000DFF814829A42854A4FF400434FEA211728
:104980004FF000064ED110281AD006DC022809D0BC
:1049900004280BD008287CD10DE020283ED04028E8
:1049A00077D13DE0FDF7ECF9014610E06846FDF7F0
:1049B000F9F901990BE003A8FDF796FA049906E0CE
:1049C0001068800605D51068C0F3C100C1400029F9
:1049D00070D0606A676838F8102007EB4703B1FBB6
:1049E000F2F0834255D8B0EB073F52D80023084677
:1049F0001946FBF721FD02467808130E120243EA1E
:104A0000012110183A4671410023FBF715FD604A59
:104A1000A0F5407191423CD821688FE03946D8E733
:104A20001946D6E7D4F81CC04FF6EF799C4546D11D
:104A3000082819D005DC58B101280CD0042875D1FC
:104A40000DE0102815D0202835D040286ED134E054
:104A5000FEF7D4F801E0FEF7E3F8014610E06846FF
:104A6000FDF7A0F901990BE003A8FDF73DFA0499C1
:104A700006E01068800604D51068C0F3C100C1408C
:104A8000C1B1636A606838F81330B1FBF3F14900D3
:104A900000E04BE001EB5001B1FBF0F0A0F11001A0
:104AA000494543D84FF6F0732168C0F342021840DD
:104AB000104343E043E03946E3E71946E1E70828BD
:104AC00019D005DC58B101280CD004282ED10DE0F6
:104AD000102815D020282BD0402827D12AE0FEF717
:104AE0008DF801E0FEF79CF8014610E06846FDF7FE
:104AF00059F901990BE003A8FDF7F6F9049906E0CE
:104B00001068800604D51068C0F3C100C140B1B17F
:104B1000636A606838F81330B1FBF3F101EB5001C0
:104B2000B1FBF0F0A0F11001494505D9012506E0DF
:104B30003946EDE71946EBE7216880B2C8600120ED
:104B4000A4F86A00A4F8680028462667666707B0DC
:104B5000BDE8F083F369FFCF000C0058FFF4FF11AC
:104B600000100140544402580044004000480040F6
:104B7000004C00400050004000140140007800400C
:104B8000007C00400090D003905900080044025877
:104B9000FFFC0F002DE9F0479A4617460E460446E3
:104BA000089D4FF000094FF020084CE0681C4AD0E7
:104BB000FCF7E8FFA0EB0A00A8422AD84DB3206812
:104BC000016849073FD5C069C04300053BD421684F
:104BD0004FF400600862216851E8000F20F4D070A3
:104BE00041E80002002AF6D12068083050E8001F92
:104BF00021F0010140E80012002AF5D1C4F88480B8
:104C000084F88090C4F88880C4F88C800320BDE8C4
:104C1000F087206850E8001F21F4D07140E80012AE
:104C2000002AF6D12068083050E8001F21F0010169
:104C300040E80012002AF5D1C4F8848084F88090FE
:104C4000C4F88880E2E72068C06936EA000004D032
:104C50000020B842AAD00020D9E70120F9E70000DF
:104C60000148FEF7DFBC0000900300240148FEF776
:104C7000D9BC0000200400240148FEF7D3BC00008A
:104C8000B00400240148FEF7CDBC0000400500241C
:104C9000FEE7090700284FEA116104DB00F1E0207C
:104CA00080F80014704700F00F0000F1E02080F859
:104CB000141D7047294B00201968890311D4BFF3D4
:104CC0004F8FBFF36F8F26490860BFF34F8FBFF33D
:104CD0006F8F196841F400311960BFF34F8FBFF334
:104CE0006F8F1968C90322D41C4970310860BFF363
:104CF0004F8F081F43F6FF740068194D1035C0F33D
:104D00004E31C0F3C90204EA4116104646EA8077E4
:104D10002F60401EFAD2491EF5D2BFF34F8F18689C
:104D200040F480301860BFF34F8FBFF36F8FFCF7F4
:104D300037FFFFF73FFBFFF76FF8FEF7C1FFFFF705
:104D4000C7F8FFF7F9F8FFF72BF9FFF75DF9FFF761
:104D50008FF9FEF7D3FF00F013F8FEE714ED00E043
:104D600050EF00E0842801464FF0000000D0C81C3E
:104D7000704710B500B9012000F02CFB002010BDD9
:104D800010B500F04DFB002010BD7FB50D46416908
:104D90000446B0F9080081B1A16971B1FFF7E2FFE3
:104DA000D4E905122B468DE807002269D4E90010EA
:104DB00000F049FC039004B070BDFFF7D3FF03A9D6
:104DC0002B46CDE90001228AD4E9001092B200F00E
:104DD0000DFC012801D00020EDE70398EBE700006F
:104DE0002DE9F041184C0F460546E6682068001D85
:104DF00000F026FA38B922680121206992F82C20A7
:104E0000914088432061681C07D137B12168BDE813
:104E1000F0410E48091D00F059BA20683544B542EA
:104E20004560216805D2A06B091DBDE8F04100F086
:104E300035BA606B091D00F031FAA06A854200D2D4
:104E4000A562BDE8F081000044000024E8070024CA
:104E50002DE9F041054600F045FA2E4C2E4FA06892
:104E6000401CA060206810B1606940B32DE025604F
:104E7000A068012829D1002606EB860007EB8000F8
:104E800000F0FEF9761C072EF6D323488C3000F094
:104E9000F7F92148A03000F0F3F91F48B43000F0D2
:104EA000EFF91D48C83000F0EBF91B48DC3000F08A
:104EB000E7F919488C3060631430A06305E0E86AB4
:104EC0002168C96A814200D825600120616A491CB5
:104ED0006162E96A226988401043206101EB810028
:104EE000291D07EB800000F0F1F900F01BFA606962
:104EF00000280CD02068E96AC06A884207D20749B6
:104F00004FF080500860BFF34F8FBFF36F8FBDE845
:104F1000F0810000440000240C07002404ED00E0B0
:104F200010B5044690F8510058B101280CD0022861
:104F30000FD0502080F31188BFF34F8FBFF36F8FD6
:104F4000FEE7206B00F002FA2046BDE8104000F0BA
:104F5000FDB910BD11484FF4705110B5420706D08D
:104F60000E49C01D20F00700411AC1F570510C4CCC
:104F7000002301440839A4F1180221F00701C4E913
:104F800000030C1A11604B600B60C0E900149460C0
:104F90004FF000415460516110BD0000FC07002437
:104FA00098000024144E4FF08058144CDFF85090B5
:104FB000A6F1C80712E000BF00F094F9F068C568D8
:104FC000281D00F03DF9A068401EA0606068401EEA
:104FD000606000F0A7F92846FFF7A2FF606800288C
:104FE000EAD138680128F9D9C9F80080BFF34F8F9A
:104FF000BFF36F8FF2E70000D407002444000024C1
:1050000004ED00E02DE9F0479A4681466FF0030376
:10501000DDE9098403EB8202089E206B104420F036
:105020000707780707D0502080F31188BFF34F8F10
:10503000BFF36F8FFEE74FF0000561B1002023182A
:105040000A5C83F834200A5C12B1401C1028F6D3A5
:1050500084F8435001E084F83450072E00D306262C
:10506000E662201DC4E9116500F015F904F118008D
:1050700000F011F9E564C6F10700A06184F8505012
:105080005246246149463846646200F0C1F8B8F1DE
:10509000000F206001D0C8F80040BDE8F087000094
:1050A00030B5114900E011460A688242FBD34B68D3
:1050B0005C18844203D14468084623444B6043682B
:1050C0001D18954209D1084C183C2468A24209D009
:1050D00052681A4442600A6812680260814200D035
:1050E000086030BD0460F9E7980000240648416B71
:1050F000096829B1416BC968C9684968816270470C
:105100004FF0FF31FAE700004400002408484068EF
:10511000401C4FF0500080F3118804D0BFF34F8F34
:10512000BFF36F8FFEE7BFF34F8FBFF36F8FFEE7C5
:10513000A00000242DE9F0410027044600F0A6F964
:10514000324E306808B9FFF705FF706904424ED14E
:10515000C4B3083460070ED004F00700C0F10800A3
:105160000444600707D0502080F31188BFF34F8FAD
:10517000BFF36F8FFEE72CB37068844237D82348A3
:10518000183001460D6801E028460D466968A142C5
:1051900002D229680029F7D131688D4227D00768EB
:1051A0002968016008376868011B10290FD9281980
:1051B000420708D0502080F31188BFF34F8FBFF310
:1051C0006F8FFEE713E041606C60FFF769FF69686D
:1051D0007068401A7060B268904200D2B0600020DF
:1051E00072691143C5E90001F068401CF06000F0ED
:1051F000BBFA780707D0502080F31188BFF34F8F98
:10520000BFF36F8FFEE73846BDE8F08180000024D1
:1052100070B5041F094E231F4FF0807521F0010166
:1052200025601C1F1960A0F120010B1F2660443867
:105230000A606FF002051D6070BD00000D5100088E
:10524000D0E9013201699A60D0E901235A604A68C5
:10525000824201D182684A60002202610868401ED1
:10526000086008687047000010B5044C8023046093
:1052700004F154000860136010BD0000AC0000246D
:105280004FF0FF3300F108010022C0E90113026072
:10529000C1600161704700210161704730B50B6842
:1052A0005A1C02D000F1080202E0026904E0224622
:1052B000546825689D42FAD953684B6099608A60AA
:1052C000516008610168491C016030BD42684A6054
:1052D00093688B6093685960916008610168491C0C
:1052E00001607047502080F31188BFF34F8FBFF3E8
:1052F0006F8F0A494868401C486001280CD1084853
:10530000006810F0FF0F07D0502080F31188BFF322
:105310004F8FBFF36F8FFEE770470000A00000249F
:1053200004ED00E00849486828B1401E486001D1FA
:1053300080F311887047502080F31188BFF34F8F9E
:10534000BFF36F8FFEE70000A000002470B50028B7
:105350002AD0164DA0F1080461686869014207D19E
:10536000502080F31188BFF34F8FBFF36F8FFEE79C
:1053700022683AB1502080F31188BFF34F8FBFF3FA
:105380006F8FFEE78143616000F080F860686968B4
:10539000084468602046FFF783FE2869401C2861A6
:1053A000BDE8704000F0E0B970BD0000800000244E
:1053B0004FF0E020002101614FF47A7281610723F0
:1053C00003490968B1FBF2F1491E4161036170476D
:1053D0003C000024020010B514D00F48006B38B117
:1053E000502080F31188BFF34F8FBFF36F8FFEE71C
:1053F00000F04CF800211046FFF7F2FC00F0B4F981
:10540000002807D105494FF080500860BFF34F8F47
:10541000BFF36F8F10BD00004400002404ED00E0D6
:1054200010B586B0002405AA04A9039403A8049427
:10543000FFF71AFFDDE9030100940023CDE9011015
:1054400010480EA1059A00F0FEF80F490028C86226
:1054500011D0502080F31188BFF34F8FBFF36F8FAF
:1054600001224FF0FF3088624A61CC6006B0BDE88F
:10547000104000F041B806B010BD000049444C4552
:1054800000000000A54F0008440000240248016B02
:10549000491C016370470000440000241448016B5C
:1054A00011B10121C16170470021C1611149026937
:1054B000B2FA82F2C2F11F0202EB820251F82230EC
:1054C0006BB101EB820101F108034A6852684A603E
:1054D0009A4201D152684A60D168016070475020F9
:1054E00080F31188BFF34F8FBFF36F8FFEE700008B
:1054F000440000240C07002437481CB537490268D3
:105500008A4207D1502080F31188BFF34F8FBFF339
:105510006F8FFEE731490068491E884207D150204D
:1055200080F31188BFF34F8FBFF36F8FFEE72C49D5
:10553000FF200A780192087008788DF800009DF825
:1055400000209DF8000002F0F002824207D05020B7
:1055500080F31188BFF34F8FBFF36F8FFEE79DF885
:10556000002007201F4C02F050022270A06005E0CE
:105570009DF8002052008DF80020401E9DF800206C
:105580001206F5D40328A06007D0502080F31188BC
:10559000BFF34F8FBFF36F8FFEE74FF44070A060F3
:1055A000019808700C482030016841F470010160D6
:1055B000016841F070410160FFF7FAFE0020606071
:1055C000FAF7DEFE0848016841F040410160FAF751
:1055D000C3FE00201CBD000000ED00E071C20F41C1
:1055E00000E400E0A000002434EF00E02DE9FF5FBC
:1055F000994616468A4683469000DDE90E87FFF7F6
:1056000099FD05001CD05420FFF794FD040014D030
:105610000020256384F851004B46CDE90087CDE991
:105620000240324651465846FFF7ECFC2046FFF751
:105630000FFC012004B0BDE8F09F2846FFF786FE6E
:105640004FF0FF30F6E7F0B585B0DDE90B740A9D49
:10565000A7B1DCB154262763022684F851600027E5
:1056600003970DF1100C0095CDE901C4FFF7CAFCBA
:105670002046FFF7EDFB049805B0F0BD502080F305
:105680001188BFF34F8FBFF36F8FFEE7502080F379
:105690001188BFF34F8FBFF36F8FFEE72DE9F04105
:1056A0002F4C206B002728B1A069401CA061384610
:1056B000BDE8F081E668761CE66013D1606B006897
:1056C00038B1502080F31188BFF34F8FBFF36F8F35
:1056D000FEE7606BA16B6163A063206A401C2062DF
:1056E000FFF704FDDFF87C80A06A864209D3606B77
:1056F0000068A0B1606BC068C5686868864211D256
:10570000A0622068C06A00EB800158F821000128DF
:1057100000D90127E0690028C9D00127C7E74FF069
:10572000FF30EDE7281DFFF78BFDA86A18B105F1E2
:105730001800FFF785FDE96A0120226988401043BF
:10574000206101EB810108EB8100291DFFF7BEFDFF
:105750002068E96AC06A8142C9D30127C7E700000F
:10576000440000240C0700242DE9F0472C4D286B41
:105770000024264638B1FFF7B5FD286B401E28638C
:10578000286B40B147E0502080F31188BFF34F8F62
:10579000BFF36F8FFEE7234F0120A968D9B3A7F1AC
:1057A000B40980463868E8B1F868C46804F11800A4
:1057B000FFF746FD201DFFF743FDE16A2A6908FA5D
:1057C00001F01043286101EB810109EB8100211DEB
:1057D000FFF77CFD2968E06AC96A8842E2D3C5F810
:1057E0001C80DFE70CB1FFF781FCAC6944B1474690
:1057F000FFF754FF00B1EF61641EF9D10020A861EA
:10580000E86940B1084901264FF080500860BFF3B5
:105810004F8FBFF36F8FFFF785FD3046BDE8F087F0
:1058200044000024C007002404ED00E04FF0407065
:10583000E1EE100A704700004C5A00081D430008B2
:1058400001000000000000008000000000000000D7
:1058500000000000E0590008254300080000000097
:1058600000000000800000000000000000000000B8
:10587000F85900083943000800000000000000004B
:10588000800000000000000000000000045A000832
:105890003F430008000000000000000080000000FE
:1058A0000000000000000000105A000847430008F4
:1058B0000000000000000000800000000000000068
:1058C000000000001C5A00084F43000800000000C0
:1058D0000000000080000000000000000000000048
:1058E000285A00085743000800000000000000008C
:1058F000800000000000000000000000345A000892
:105900005F4300080000000000000000800000006D
:105910000000000000000000405A00086743000833
:1059200000000000000000008000000000000000F7
:1059300000000000C85900086F4300080000000084
:1059400000000000800000000000000000000000D7
:10595000D459000877430008000000000000000050
:10596000800000000000000000000000EC5900086A
:105970007F430008000000000000000080000000DD
:1059800000000000000000000006101600061016BF
:10599000010002000400060008000A000C001000CC
:1059A0002000400080000001010101030701000008
:1059B00008040204080101010000000001020304C0
:1059C00001020304060708096D795461736B3130D5
:1059D000000000006D795461736B313100000000EC
:1059E0006D795461736B3032000000006D79546141
:1059F000736B3132000000006D795461736B30338A
:105A0000000000006D795461736B303400000000B9
:105A10006D795461736B3035000000006D7954610D
:105A2000736B3036000000006D795461736B303752
:105A3000000000006D795461736B30380000000085
:105A40006D795461736B3039000000004D61696EEF
:105A50005461736B00000000785A000800000024B5
:105A6000AC000000D4020008245B0008AC00002455
:105A7000B4490000F002000800000000000000002F
:105A80000000000000000000000000000000000016
:105A90000000000000000000000000000000000006
:105AA00000000000000000000100000010000000E5
:105AB000000000000090D0030090D0030000000020
:105AC00000000000000000000000000000000000D6
:105AD00000000000000000000000000000000000C6
